S00B00007374613131383132AF
S3150000000000FC0220DD5401009D0500009D05000056
S315000000109D0500009D0500009D05000000000000F4
S315000000200000000000000000000000005504000071
S315000000309D05000000000000D70400009D0500009B
S315000000409D0500009D0500009D0500009D05000022
S315000000509D0500009D0500009D0500009D05000012
S315000000609D0500009D0500009D0500009D05000002
S315000000709D0500009D0500009D0500009D050000F2
S31500000400FFFFFFFFFFFFFFFFFFFFFFFFFEFFFFFFF7
S3150000042001DF704701DFFFF7FEBFB348006872B611
S31500000430018B39B9416AC269D369994200F00280D9
S3150000044062B603DF62B6704703DF7047FFF7FEBF91
S3150000045002DF704772B61EF0040F0CBFEFF308817F
S31500000460EFF30981896911F8021C032940F007801E
S3150000047000B500F020F85DF804EB00F01AB8012989
S3150000048040F004809C48006800F04DB8022940F016
S31500000490108099480068C1698A6842F001028A6042
S315000004A000B54A680B6813605A6000F004F85DF8FE
S315000004B004EB62B6704707B59048416811F0805F5B
S315000004C040F00880EFF31182A2F1100280F822209A
S315000004D08B49416007BD72B687480068EFF3098C07
S315000004E088498A78EFF311832CE9FC4FC369C3F876
S315000004F014C0996A11F0020F00F01580D3F834C0C9
S31500000500814A52F8041B4CF8041B52F8041B4CF8A1
S31500000510041B52F8041B4CF8041BF1EE101A4CF89D
S31500000520081B8CEC200A72B6416A0A688A4240F0BF
S315000005300580896809007FF4F8AFFEE74162C26171
S31500000540938C4383916A11F0020F00F01A80836C3A
S315000005509A4200F016808264D2F834C06A4C5CF885
S31500000560043B44F8043B5CF8043B44F8043B5CF869
S31500000570043B44F8043B5CF8083BE1EE103ABCEC63
S31500000580200AD2F814C0BCE8FC4F83F311888CF320
S3150000059009885A485D49416062B6704772B600B52F
S315000005A0554B1B68198B01F101011983584801B499
S315000005B0EFF31182EFF30581586B07B4EFF3088070
S315000005C0586308461A6B0AB900F037B8904200F231
S315000005D03480DA6A811AC0F230809A6B4FEAD10110
S315000005E04FEA8101515809B900F027B80A6832B1BB
S315000005F0824200F00680096909427FF4F7AF00F0F5
S315000006001CB8C8684A6808B462B6904772B608BC97
S3150000061007BC586301BC198B01391983DA69906AE2
S3150000062010F4805F40F0078029B9596A0968914241
S3150000063018BFFFF740FF62B600BD9A6AFFF7E3BF37
S3150000064072B6F1B42C4B1B68D3F834C00CF1100C05
S315000006505CF804EB2F4820F00100CCF818009CE869
S31500000660FF005DF804CBACF1040C2CE9FF00F0BCF4
S315000006708CF3088862B670471F480068C369996A98
S31500000680D3F834C0204A52F8041B4CF8041B52F825
S31500000690041B4CF8041B52F8041B4CF8041BF1EE27
S315000006A0101A4CF8081B8CEC200A70474FF0800299
S315000006B0D0E84F1F00290CBFC0E8432F00F003B855
S315000006C0002B7FF4F5AF08467047EFF309807047BB
S315000006D0EFF30880704780F308887047EFF30380D4
S315000006E0704762B6704772B6704770467047784674
S315000006F07047EFF3148070471001FF1F00ED00E014
S315000007000000001020ED00E034EF00E000000008DB
S31500000710000000000C06000080B588B002AFF8604B
S31500000720B9607A603B604FF0FF03FB744FF0010342
S31500000730BB744FF000037B61BB6803F00F03002B13
S3150000074003D04FF480737B6110E1FB685A68BB6885
S315000007509A4209D8FB685A68FB689B684FEA5303BC
S31500000760D218BB689A4203D84FF002037B61FDE0C2
S31500000770FB685B68BA68D31ABB60BA6840F2FF339D
S315000007809A4208D9BA6840F20F439A4203D84FF00A
S3150000079002037B61EAE007F1130307F112020092FC
S315000007A03A680192F868B9681A467B6800F04AF917
S315000007B078617B69002B40F0D980BB7C002B00F070
S315000007C0D580FB7C002B40D1F868B9684FF0010258
S315000007D03B6800F0D7F878617B69002B40F0BF805A
S315000007E000BFFB681B6803F10A031B78DBB2FB74CE
S315000007F0FB7C012B13D0FB681B6803F10A031B78F3
S31500000800DBB2FB74FB7C022B09D0FB681B6803F18F
S315000008100A031B78DBB2FB74FB7C032BE1D107F1E7
S31500000820130307F1120200923A680192F868B96858
S315000008301A467B6800F006F978617B69002B40F068
S315000008409580BB7C002B00F09180FB7C012B33D183
S31500000850F868B9684FF002023B6800F093F87861D7
S315000008607B69002B7DD100BFFB681B6803F10A037F
S315000008701B78DBB2FB74FB7C022B09D0FB681B6880
S3150000088003F10A031B78DBB2FB74FB7C032BEBD171
S3150000089007F1130307F1120200923A680192F86811
S315000008A0B9681A467B6800F0CDF878617B69002B41
S315000008B05CD1BB7C002B59D0FB7C022B02D0FB7C8D
S315000008C0032B53D1FB7C032B22D0FB689B684FEA9A
S315000008D05302BB68D318F86819463A6800F08AF8DC
S315000008E078617B69002B3ED107F1130307F11202F1
S315000008F000923A680192F868B9681A467B6800F077
S31500000900A1F878617B69002B30D1BB7C002B2DD000
S31500000910F868B9684FF004023B6800F033F8786174
S315000009207B69002B21D100BFFB681B6803F10A031A
S315000009301B78DBB2FB74FB7C042BF5D107F11303A8
S3150000094007F1120200923A680192F868B9681A46ED
S315000009507B6800F077F878617B69002B06E000BFC2
S3150000096004E000BF02E000BF00E000BFFB6893F8B0
S315000009702030012B00D100BE7B69184607F118070D
S31500000980BD4680BD80B588B000AFF860B9603B60F9
S315000009901346FB714FF00003FB614FF046033B75B6
S315000009A0BB6803F47F034FEA1343DBB27B75BB6876
S315000009B003F47F434FEA1323DBB2BB75BB68DBB29C
S315000009C0FB75FB793B764FF0FF037B764FF0FF0319
S315000009D0BB764FF0FF03FB7607F114023B68F8681D
S315000009E04FF007019847F861FB69184607F12007A1
S315000009F0BD4680BD80B586B000AFF860B9607A604C
S31500000A004FF000037B614FF009033B74BB684FEA6C
S31500000A101343DBB27B74BB684FEA1323DBB2BB74B0
S31500000A20BB68DBB2FB7407F110027B68F8684FF015
S31500000A300301984778617B69184607F11807BD4698
S31500000A4080BD00BF80B586B000AFF860B9607A603F
S31500000A503B604FF000037B61F868B9684FF008020D
S31500000A607B6AFFF78FFF78617B69002B01D07B697A
S31500000A7015E0FB681B6803F10A031B78DAB27B6892
S31500000A801A703B68B3F1FF3F08D07B681A783B6861
S31500000A901046984703461A463B6A1A707B69184601
S31500000AA007F11807BD4680BD80B588B000AFF86075
S31500000AB0B9607A603B604FF00003FB61BB6803F0EE
S31500000AC00F03002B03D04FF48073FB6165E0FB68D6
S31500000AD05A68BB689A4209D8FB685A68FB689B68E3
S31500000AE04FEA5303D218BB689A4203D84FF0020369
S31500000AF0FB6152E0FB685B68BA68D31ABB60BA68F0
S31500000B0040F2FF339A4208D9BA6840F20F439A423C
S31500000B1003D84FF00203FB613FE04FF046033B75FD
S31500000B20BB684FEA1343DBB27B75BB684FEA1323FE
S31500000B30DBB2BB75BB68DBB2FB754FF008033B76D7
S31500000B404FF0FF037B764FF0FF03BB764FF0FF03BA
S31500000B50FB7607F11402FB6AF8684FF00701984725
S31500000B60F861FB69002B18D1FB681B6803F10A03C7
S31500000B701B78DAB27B681A70FB681B6803F10903FD
S31500000B801B78DAB23B681A70FB681B6803F108032E
S31500000B901B78DAB2BB6A1A7000BFFB6893F8203084
S31500000BA0012B00D100BEFB69184607F12007BD46A0
S31500000BB080BD00BF80B58AB000AFF860B9607A60CA
S31500000BC03B604FF000037B62BA687B68D3183B62D8
S31500000BD0BB6803F00703002B03D04FF480737B62DE
S31500000BE091E07B6803F00703002B03D04FF001036D
S31500000BF07B6288E0FB685A68BB689A4207D8FB6844
S31500000C005A68FB689B68D2183B6A9A4218D2FB68FE
S31500000C10DA68BB689A4207D8FB68DA68FB681B6922
S31500000C20D2183B6A9A4203D24FF002037B626AE013
S31500000C30FB68DB68BA68D31A03F50003BB6004E0FF
S31500000C40FB685B68BA68D31ABB607B6A002B5AD113
S31500000C5054E04FF007033B75BB684FEA1343DBB222
S31500000C607B75BB684FEA1323DBB2BB75BB68DBB28F
S31500000C70FB753B6803F103031B78DBB23B763B68ED
S31500000C8003F102031B78DBB27B763B6803F10103B9
S31500000C901B78DBB2BB763B681B78DBB2FB763B6826
S31500000CA003F107031B78DBB23B773B6803F10603CE
S31500000CB01B78DBB27B773B6803F105031B78DBB25D
S31500000CC0BB773B6803F104031B78DBB2FB7707F1C4
S31500000CD014023B6BF8684FF00B01984778627B6A09
S31500000CE0002B0FD1BB6803F10803BB607B68A3F13F
S31500000CF008037B603B6803F108033B607B68002BBD
S31500000D00A7D100E000BFFB6893F82030012B00D18B
S31500000D1000BE7B6A184607F12807BD4680BD00BFA6
S31500000D2080B485B000AF78604FF00003FB607B684D
S31500000D304FF000021A617B684FF00002DA617B68AF
S31500000D4093F82030012B00D100BEFB68184607F14E
S31500000D501407BD4680BC704780B588B000AFF86008
S31500000D60B9607A603B604FF00003FB61BA687B684C
S31500000D70D3187B61FB685A68BB689A4207D8FB6840
S31500000D805A68FB689B68D2187B699A421BD2FB683B
S31500000D90DA68BB689A4207D8FB68DA68FB681B69A1
S31500000DA0D2187B699A4203D24FF00203FB615AE0E4
S31500000DB0FB68DB68BA68D31A03F50003BB604FF023
S31500000DC00003BB6107E0FB685B68BA68D31ABB60C7
S31500000DD04FF48053BB61BB68BA69B3FBF2F2B969E1
S31500000DE001FB02F29B1A002B03D04FF48073FB61C8
S31500000DF039E07B68BA69B3FBF2F2B96901FB02F22A
S31500000E009B1A002B03D04FF00103FB612BE0FB691B
S31500000E10002B28D122E04FF009033B74BB684FEA50
S31500000E201343DBB27B74BB684FEA1323DBB2BB749C
S31500000E30BB68DBB2FB7407F110023B68F8684FF041
S31500000E4003019847F861FB69002B0BD17A68BB69EF
S31500000E50D31A7B60BA68BB69D318BB607B68002B6A
S31500000E60D9D100E000BFFB6893F82030012B00D1F8
S31500000E7000BEFB69184607F12007BD4680BD00BFCE
S31500000E8080B588B000AFF8600B467A60FB724FF011
S31500000E900003BB6100BFFB681B681B78DBB2DBB2DB
S31500000EA05BB2002BF7DAFB681B684FF070021A7012
S31500000EB04FF00003FB779CE0FB7F0B2B00F2948046
S31500000EC001A252F823F000BFF90E00000D0F00003A
S31500000ED0210F0000350F0000490F00005D0F0000D4
S31500000EE0710F0000850F0000990F0000AD0F000084
S31500000EF0C10F0000D50F0000FB681B6803F1070354
S31500000F00FA7F79688A1812781A706EE0FB681B6897
S31500000F1003F10603FA7F79688A1812781A7064E07A
S31500000F20FB681B6803F10503FA7F79688A18127853
S31500000F301A705AE0FB681B6803F10403FA7F7968AC
S31500000F408A1812781A7050E0FB681B6803F10B03CD
S31500000F50FA7F79688A1812781A7046E0FB681B686F
S31500000F6003F10A03FA7F79688A1812781A703CE04E
S31500000F70FB681B6803F10903FA7F79688A181278FF
S31500000F801A7032E0FB681B6803F10803FA7F796880
S31500000F908A1812781A7028E0FB681B6803F10F03A1
S31500000FA0FA7F79688A1812781A701EE0FB681B6847
S31500000FB003F10E03FA7F79688A1812781A7014E022
S31500000FC0FB681B6803F10D03FA7F79688A181278AB
S31500000FD01A700AE0FB681B6803F10C03FA7F796854
S31500000FE08A1812781A7000E000BFFB7F03F1010334
S31500000FF0FB77FA7FFB7A9A427FF65EAFFB681B6847
S315000010004FF080021A7007E0FB685B6AB3F1FF3F9E
S3150000101002D0FB685B6A9847FB681B681B78DBB2EB
S31500001020DBB25BB2002BEFDAFB681B681B78FB7543
S31500001030FB7D03F02003002B03D04FF00403BB61BC
S3150000104010E0FB7D03F01003002B03D04FF00803E4
S31500001050BB6107E0FB7D03F00103002B02D04FF0DC
S315000010601003BB61BB69184607F12007BD4680BD6A
S3150000107080B483B000AF78607B68002B0AD07B68B1
S315000010805B68B3F1FF3F05D07B685B6803F1010243
S315000010907B685A607B68184607F10C07BD4680BC22
S315000010A0704700BF80B582B000AF78607B68002BC8
S315000010B011D07B685B68B3F1FF3F0CD07B685B683F
S315000010C003F1FF327B685A607B685B68002B02D1B4
S315000010D0786800F0C3FC07F10807BD4680BD00BF75
S315000010E080B584B000AFF860B9607A607868FFF7C1
S315000010F0BFFF0346F868B9681A4600F0A7F803462A
S31500001100184607F11007BD4680BD00BF80B582B006
S3150000111000AF786039603868FFF7AAFF0346786841
S31500001120194600F0D9FA0346184607F10807BD46E6
S3150000113080BD00BF80B483B000AF78600B46FB7003
S315000011407B68FA781A707B684FF001025A6007F1E3
S315000011500C07BD4680BC704780B582B000AF4FF02B
S31500001160240001F04DFC78607B68002B02D14FF023
S3150000117000031DE07B6818464FF00001FFF7DAFF19
S315000011807B6803F10803184603F08CF80346002B2E
S3150000119005D0786801F0C2FC4FF0000308E07B68D8
S315000011A04FF00002DA617B684FF000021A627B683A
S315000011B0184607F10807BD4680BD00BF80B582B05E
S315000011C000AF78607B6803F10803184603F0B8F8AF
S315000011D0786801F0A3FC07F10807BD4680BD00BF93
S315000011E080B485B000AF78607B68002B03D07B6845
S315000011F01B78002B02D04FF0000303E07B68FB60F6
S31500001200FB689B68184607F11407BD4680BC70470B
S3150000121080B584B000AF786039607B68002B03D05E
S315000012207B681B78002B02D04FF0000309E07B6837
S31500001230FB60FB6803F108031846396803F00CF9F4
S315000012400346184607F11007BD4680BD80B586B037
S3150000125000AFF860B9607A607B68002B02D14FF06E
S31500001260FF332FE0BB68002B0AD0FB68002B07D0AA
S31500001270FB681B78002B03D1FA687B689A4205D17C
S315000012807868FFF70FFF4FF0FF331BE0FB687B61C9
S315000012907B6903F108017B69DB691A4603F10100EA
S315000012A07B69D8610846B9687B6803F059F803463C
S315000012B0002B05D07868FFF7F5FE4FF0FF3301E00D
S315000012C04FF00003184607F11807BD4680BD00BF62
S315000012D080B584B000AFF860B9607A60BB68002B57
S315000012E007D0B8684FF0FF3100F010FE0346002B20
S315000012F005D17868FFF7D6FE4FF0FF3305E0F868B2
S31500001300B9687A68FFF7A2FF0346184607F1100787
S31500001310BD4680BD80B584B000AF786039607B681B
S31500001320002B03D07B681B78002B02D04FF0FF33D5
S3150000133009E07B68FB60FB6803F10803184639681F
S3150000134003F0B8F80346184607F11007BD4680BDFE
S3150000135080B584B000AF78607B68002B03D07B68D3
S315000013601B78002B02D04FF0000308E07B68FB607F
S31500001370FB6803F10803184603F0B0F80346184665
S3150000138007F11007BD4680BD80B584B000AF786018
S3150000139039607B68002B06D07B681B78002B02D156
S315000013A03B68002B02D14FF0000309E07B68FB602D
S315000013B0FB6803F108031846396803F0A1F80346F1
S315000013C0184607F11007BD4680BD00BF80B582B044
S315000013D000AF78607B68002B02D14FF0000303E07A
S315000013E0786803F0A7F80346184607F10807BD46D4
S315000013F080BD00BF80B582B000AF78607B68002BEF
S3150000140002D14FF0000303E0786803F0B5F8034615
S31500001410184607F10807BD4680BD00BF80B483B0FB
S3150000142000AF78607B68002B02D14FF0000304E028
S315000014307B68A3F1140303F10403184607F10C07B4
S31500001440BD4680BC704700BF80B586B000AF7860EF
S31500001450FFF782FE38613B69002B02D14FF0000393
S3150000146029E07868FFF774FF03461846FFF7AEFFDA
S31500001470786111E038697969FA68FFF731FE7869B1
S31500001480FFF7CCFF034678681946FFF77DFF034652
S315000014901846FFF79BFF78617B69002B0AD07869B5
S315000014A0FFF7BCFF03461846FFF7A4FFF860FB688A
S315000014B0002BDFD13B69184607F11807BD4680BDF2
S315000014C080B582B000AF4FF0180001F099FA78604D
S315000014D07B68002B02D14FF0000326E07B6818469C
S315000014E04FF00101FFF726FE7B684FF00002DA603D
S315000014F07B684FF008029A607B689B684FEA83031B
S31500001500184601F07DFA02467B681A617B681B6902
S31500001510002B05D1786801F001FB4FF0000304E0D1
S315000015207B684FF000025A617B68184607F108078E
S31500001530BD4680BD80B584B000AF78604FF0000333
S31500001540FB600DE07B681A69FB684FEA8303D318DA
S315000015501B681846FFF7A6FDFB6803F10103FB6055
S315000015607B68DA68FB689A42ECD87B681B69184688
S3150000157001F0D4FA786801F0D1FA07F11007BD46F8
S3150000158080BD00BF80B483B000AF78607B68002B5D
S3150000159003D07B681B78012B02D04FF0000301E0DB
S315000015A07B68DB68184607F10C07BD4680BC7047B0
S315000015B080B485B000AF786039607B68002B03D0BB
S315000015C07B681B78012B02D04FF0000310E07B688C
S315000015D0FB60FB68DA683B689A4202D84FF000036A
S315000015E006E0FB681A693B684FEA8303D3181B6859
S315000015F0184607F11407BD4680BC704780B584B015
S3150000160000AFF860B9607A603B60BB684FEA83035D
S31500001610FA68D1183B684FEA83037A68D218BB6927
S315000016204FEA8303084611461A4636F008FE07F1CC
S315000016301007BD4680BD00BF80B58AB002AFF86016
S31500001640B9607A60FB68DA68BB68D218FB689B6889
S315000016509A4202D8FB681B6938E0FB681B69FB618C
S31500001660FB689B684FEA4302FB689968BB68CB1826
S315000016709A4228BF1346BB61BB694FEA83031846EB
S3150000168001F0BEF978617B69002B02D14FF00003AF
S315000016901CE0FB68BA699A60FB687A691A617B6824
S315000016A0002B12D0FB681B69FA68D26800921846B4
S315000016B04FF00001FA694FF00003FFF79FFFF8694A
S315000016C001F02CFAFB681B6900E0FB69184607F17C
S315000016D02007BD4680BD00BF80B584B000AF7860EE
S315000016E039603B68002B02D14FF0FF3333E07B6853
S315000016F0002B07D07B681B78012B03D17A683B68E7
S315000017009A4205D13868FFF7CDFC4FF0FF3322E04F
S315000017107B68FB60F8684FF001014FF00102FFF7AC
S315000017208BFF0346002B05D13868FFF7BBFC4FF053
S31500001730FF3310E0FB681A69FB68DB684FEA830336
S31500001740D3183A681A60FB68DB6803F10102FB688C
S31500001750DA604FF00003184607F11007BD4680BD5A
S3150000176080B584B000AF7860FFF7AAFEB860BB68AA
S31500001770002B02D14FF0000318E04FF00003FB608E
S315000017800CE07868F968FFF713FF0346B868194656
S31500001790FFF7BCFCFB6803F10103FB607868FFF709
S315000017A0F1FE0246FB689A42EBD8BB68184607F181
S315000017B01007BD4680BD00BF80B584B000AF78601D
S315000017C07B68002B02D14FF0000321E04FF00C00A4
S315000017D001F016F9F860FB68002B02D14FF0000308
S315000017E016E0FB6818464FF00201FFF7A3FC786885
S315000017F001F0B4F90246FB689A60FB689B68002B0F
S3150000180005D1F86801F08AF94FF0000300E0FB68A3
S31500001810184607F11007BD4680BD00BF80B582B0EF
S3150000182000AF78607B68002B07D078684FF0FF31F7
S3150000183000F06CFB0346002B02D14FF0000303E0DF
S315000018407868FFF7B9FF0346184607F10807BD4653
S3150000185080BD00BF80B483B000AF78607B68002B8A
S3150000186003D07B681B78022B02D04FF0000301E007
S315000018707B689B68184607F10C07BD4680BC70471D
S3150000188080B582B000AF78607B689B68184601F02F
S3150000189045F9786801F042F907F10807BD4680BDB1
S315000018A080B582B000AF78607868FFF7D3FF034653
S315000018B01846FFF781FF0346184607F10807BD469D
S315000018C080BD00BF80B584B000AF78604FF00C00DB
S315000018D001F096F8F860FB68002B02D14FF0000388
S315000018E009E0FB6818464FF00301FFF723FCFB688D
S315000018F07A689A60FB68184607F11007BD4680BDF6
S3150000190080B483B000AF78607B68002B03D07B681F
S315000019101B78032B02D04FF0000301E07B689B6825
S31500001920184607F10C07BD4680BC704780B582B0EB
S3150000193000AF7860786801F0F1F807F10807BD4656
S3150000194080BD00BF80B582B000AF78607868FFF7D1
S31500001950D7FF03461846FFF7B5FF0346184607F1BB
S315000019600807BD4680BD00BF80B584B000AFC7E99B
S3150000197000014FF0100001F043F8F860FB68002BFF
S3150000198002D14FF000030BE0FB6818464FF004014C
S31500001990FFF7D0FBF968D7E90023C1E90223FB680A
S315000019A0184607F11007BD4680BD00BF80B483B05E
S315000019B000AF78607B68002B03D07B681B78042B14
S315000019C004D04FF000024FF0000302E07B68D3E939
S315000019D002231046194607F10C07BD4680BC704726
S315000019E080B582B000AF7860786801F097F807F1AB
S315000019F00807BD4680BD00BF80B582B000AF7860E5
S31500001A007868FFF7D3FF02460B4610461946FFF7E4
S31500001A10ABFF0346184607F10807BD4680BD00BF69
S31500001A2080B400AF40F21003C1F6FF731846BD46FE
S31500001A3080BC704780B400AF40F20803C1F6FF7364
S31500001A401846BD4680BC704780B400AF40F2000324
S31500001A50C1F6FF731846BD4680BC704780B582B09C
S31500001A6000AF78607B68002B07D07B681B78002B63
S31500001A7003D17868FFF7A2FB2AE07B68002B07D02A
S31500001A807B681B78012B03D17868FFF753FD1FE0B5
S31500001A907B68002B07D07B681B78022B03D1786804
S31500001AA0FFF7EEFE14E07B68002B07D07B681B78FF
S31500001AB0032B03D17868FFF739FF09E07B68002B19
S31500001AC006D07B681B78042B02D17868FFF788FF65
S31500001AD007F10807BD4680BD80B582B000AF7860CB
S31500001AE07B68002B02D14FF0000354E07B68002B8B
S31500001AF008D07B681B78002B04D17868FFF7A4FC1C
S31500001B00034648E07B68002B08D07B681B78012BD6
S31500001B1004D17868FFF724FE03463CE07B68002B7F
S31500001B2008D07B681B78022B04D17868FFF7B8FED3
S31500001B30034630E07B68002B08D07B681B78032BBC
S31500001B4004D17868FFF7FEFE034624E07B68002B8D
S31500001B5008D07B681B78042B04D17868FFF74CFF0C
S31500001B60034618E07B68002B03D07B681B78052BA7
S31500001B700DD07B68002B03D07B681B78062B06D024
S31500001B807B68002B05D07B681B78072B01D17B680F
S31500001B9001E04FF00003184607F10807BD4680BD77
S31500001BA080B485B000AFF860B9607A60FB68002B3E
S31500001BB002DA4FF0FF339CE0FB687F2B08DCFB6802
S31500001BC0DAB2BB681A707B684FF001021A608EE0C9
S31500001BD0FA6840F2FF739A421BDCFB6803F4F86371
S31500001BE04FEAA313DBB2A3F14003DAB2BB681A7063
S31500001BF0BB6803F10103FA68D2B202F03F02D2B227
S31500001C00A2F18002D2B21A707B684FF002021A600B
S31500001C106DE0FA684FF6FF739A4228DCFB6803F41E
S31500001C2070434FEA2333DBB2A3F12003DAB2BB6879
S31500001C301A70BB6803F10103FA6802F47C624FEA8A
S31500001C40A212D2B2A2F18002D2B21A70BB6803F11C
S31500001C500203FA68D2B202F03F02D2B2A2F18002C7
S31500001C60D2B21A707B684FF003021A603FE0FA683E
S31500001C704FF6FF73C0F210039A4235DCFB6803F49B
S31500001C80E0134FEAA343DBB2A3F11003DAB2BB6859
S31500001C901A70BB6803F10103FA6802F47C324FEA5A
S31500001CA02232D2B2A2F18002D2B21A70BB6803F11C
S31500001CB00203FA6802F47C624FEAA212D2B2A2F1DF
S31500001CC08002D2B21A70BB6803F10303FA68D2B27B
S31500001CD002F03F02D2B2A2F18002D2B21A707B6841
S31500001CE04FF004021A6002E04FF0FF3301E04FF0BC
S31500001CF00003184607F11407BD4680BC704700BFB5
S31500001D0080B485B000AF0346FB71FB79FB73FB7BA8
S31500001D105BB2002B02DB4FF001032FE0FB7B5BB2D3
S31500001D20002B05DAFB7BBF2B02D84FF0000325E022
S31500001D30FB7BC02B02D0FB7BC12B02D14FF00003F3
S31500001D401CE0FB7BC12B05D9FB7BDF2B02D84FF0B8
S31500001D50020313E0FB7BDF2B05D9FB7BEF2B02D8BD
S31500001D604FF003030AE0FB7BEF2B05D9FB7BF42B3B
S31500001D7002D84FF0040301E04FF00003184607F1C4
S31500001D801407BD4680BC704780B489B000AFF860C8
S31500001D90B9607A604FF00003BB61FB681B78FB7586
S31500001DA0BB68022B04D1FB7D03F01F03BB6112E06D
S31500001DB0BB68032B04D1FB7D03F00F03BB610AE074
S31500001DC0BB68042B04D1FB7D03F00703BB6102E073
S31500001DD04FF000035AE04FF00103FB611AE0FB6984
S31500001DE0FA68D3181B78FB75FB7D5BB2002B02DA11
S31500001DF0FB7DBF2B02D94FF0000347E0BB694FEADA
S31500001E008312FB7D03F03F03D318BB61FB6903F12B
S31500001E100103FB61FA69BB689A42E0DBBA694FF6D7
S31500001E20FF73C0F210039A4202DD4FF000032DE06B
S31500001E30BA694DF2FF739A4207DDBA694DF6FF7330
S31500001E409A4202DC4FF0000320E0BB68022B02D16D
S31500001E50BB697F2B0FDDBB68032B04D1BA6940F247
S31500001E60FF739A4207DDBB68042B07D1BA694FF6A8
S31500001E70FF739A4202DC4FF0000307E07B68002BF9
S31500001E8002D07B68BA691A604FF00103184607F161
S31500001E902407BD4680BC704780B584B000AF78602B
S31500001EA039607B681B78002B01D17B6828E07B6852
S31500001EB01B781846FFF724FFF860FB68002B02DC4E
S31500001EC04FF000031CE0FB68012B03D17B681B78F5
S31500001ED0BB600CE007F108037868F9681A46FFF75B
S31500001EE053FF0346002B02D14FF0000308E03B6886
S31500001EF0002B02D0BA683B681A60FB687A68D31870
S31500001F00184607F11007BD4680BD00BF80B584B0F6
S31500001F1000AF786039603B68B3F1FF3F04D1786861
S31500001F2036F0D5F903463B604FF00003FB6032E024
S31500001F30FB687A68D3181B781846FFF7E1FEB8608D
S31500001F40BB68002B02D14FF000032AE0BB68012BCF
S31500001F501DDDFA68BB68D2183B689A4202DD4FF075
S31500001F6000031EE0FB687A68D3181846B9684FF07C
S31500001F700002FFF709FF0346002B02D14FF00003D2
S31500001F800FE0BB6803F1FF33FA68D318FB60FB6808
S31500001F9003F10103FB60FA683B689A42C8DB4FF025
S31500001FA00103184607F11007BD4680BD80B586B00F
S31500001FB000AF7860396044F22C73C1F6FF734FF0BE
S31500001FC000021A607B681A6807F10C03104619466E
S31500001FD036F006F8C7E9040144F22C73C1F6FF7324
S31500001FE01B68222B0DD1D7E904014FF000024FF0F8
S31500001FF0000337F0B9FF0346002B02D14FF0FF3341
S3150000200006E03968D7E90423C1E900234FF000034D
S31500002010184607F11807BD4680BD00BF80B58AB0D7
S3150000202002AFF860B960C7E90023B968D7E90023B1
S31500002030CDE90023F8684EF29012C0F2040213F0C4
S3150000204001FB38613B69002B02DA4FF0FF3375E084
S315000020503B697B617A69BB689A4202D34FF0FF33D2
S315000020606CE0F8684FF02E0136F010F90346002BAD
S315000020702AD1F8684FF0650136F008F90346002BBF
S3150000208022D17B6903F10302BB689A4202D34FF067
S31500002090FF3353E0FA687B69D3184FF02E021A70AB
S315000020A07B6903F10103FA68D3184FF030021A7006
S315000020B07B6903F10203FA68D3184FF000021A7025
S315000020C07B6903F102037B61F8684FF0650136F026
S315000020D0DDF8F861FB69002B2FD0FB6903F10103E2
S315000020E0FB61FB6903F10103BB61FB691B782D2BC7
S315000020F009D1FB6903F10103FB6104E0BB6903F14C
S315000021000103BB6100E000BFBB691B78302BF5D033
S31500002110BA69FB699A4210D0FA68BB69D31A1A46A3
S315000021207B69D318F869B9691A4636F091F8FA69E5
S31500002130BB69D31A7A69D3187B617B69184607F1A4
S315000021402007BD4680BD00BF80B582B000AF786075
S315000021507B684FF010029A607B684FF000025A606D
S315000021607B689B68184600F04BFC02467B681A6049
S315000021707B681B68002B02D14FF0FF3306E07B68BB
S315000021801B684FF000021A704FF00003184607F163
S315000021900807BD4680BD00BF80B582B000AF78603D
S315000021A07B681B68184600F0B9FC7B684FF000029C
S315000021B09A607B684FF000025A607B684FF000021D
S315000021C01A6007F10807BD4680BD00BF80B483B022
S315000021D000AF78607B684FF000025A607B681B682E
S315000021E04FF000021A7007F10C07BD4680BC70471D
S315000021F080B483B000AF78607B681B68184607F12F
S315000022000C07BD4680BC704780B582B000AF7860D1
S315000022100B46FB7007F10303786819464FF001027D
S3150000222000F006F80346184607F10807BD4680BDCC
S3150000223080B586B000AFF860B9607A60FB689A68CE
S31500002240FB685B68D21A7B689A4240D8FB689B6839
S31500002250002B0DDB7B68B3F1FF3F09D0FB685A68A2
S3150000226079684FF6FE73CFF6FF735B1A9A4202D96E
S315000022704FF0FF3345E0FB685A687B68D31803F1DB
S315000022800102FB689B684FEA43039A4228BF134644
S315000022907B61786900F0B4FB38613B69002B02D1A1
S315000022A04FF0FF332DE0FB681A68FB685B683869FE
S315000022B011461A4635F0C3FFFB681B68184600F046
S315000022C02DFCFB683A691A60FB687A699A60FB68BC
S315000022D01A68FB685B68D3181846B9687A6835F0DF
S315000022E0AEFFFB685A687B68D218FB685A60FB68C9
S315000022F01A68FB685B68D3184FF000021A704FF03B
S315000023000003184607F11807BD4680BD80B485B0A6
S3150000231000AF78607B685B68002B16D07B681A6814
S315000023207B685B6803F1FF317B6859607B685B689B
S31500002330D3181B78FB737B681A687B685B68D318B5
S315000023404FF000021A70FB7B01E04FF000031846C5
S3150000235007F11407BD4680BC704700BF80B483B048
S3150000236000AF78607B68002B0AD07B685B68B3F1AE
S31500002370FF3F05D07B685B6803F101027B685A600A
S315000023807B68184607F10C07BD4680BC704700BF46
S3150000239080B582B000AF78607B68002B11D07B6877
S315000023A05B68B3F1FF3F0CD07B685B6803F1FF32DB
S315000023B07B685A607B685B68002B02D17868FFF700
S315000023C04DFB07F10807BD4680BD00BF80B485B050
S315000023D000AFF860B9607A603B60FB68BA68DA60A3
S315000023E0FB687A681A61FB683A681A60FB681A68C3
S315000023F0FB685A60FB684FF001025A61FB684FF0B8
S3150000240000029A6107F11407BD4680BC704700BF01
S3150000241080B485B000AF78607B685B68FB607B68E2
S315000024209B6903F101027B689A6118E0FB681B78DF
S315000024300A2B0AD17B685B6903F101027B685A614A
S315000024407B684FF001029A6105E07B689B6903F1A6
S3150000245001027B689A61FB6803F10103FB60FB687C
S315000024601B78202BE2D0FB681B78092BDED0FB689B
S315000024701B780A2BDAD0FB681B782C2BD6D0FB688E
S315000024801B783A2BD2D0FB681A787B681A72FB68E5
S3150000249003F10103FB607B68FA685A6007F11407D1
S315000024A0BD4680BC704700BF0CB480B586B002AF95
S315000024B07860396007F11C03BB607B685B681A466D
S315000024C07B681B68D31AFB607B68D9687B685A698E
S315000024D07B689B69B8690090B86801900846114608
S315000024E01A46FB6802F0D2F87B68DB681846396842
S315000024F002F07CF807F11007BD46BDE8804002B047
S31500002500704700BF80B586B000AF78603960FEF7CF
S3150000251023FE78617868FFF77BFF6FE07B681B7AA4
S31500002520002B0BD178684EF2E411C0F204014EF292
S31500002530F012C0F20402FFF7B7FF66E07B681B7A71
S31500002540732B0DD07B681B7A78684EF2E411C0F2CB
S3150000255004014EF21022C0F20402FFF7A5FF54E078
S315000025603B681B6803F104013A6811601B683B6114
S315000025703B69002B0BD178684EF23021C0F2040182
S315000025804EF23822C0F20402FFF78EFF3DE03869B2
S315000025904FF0FF31FFF7BAFC0346002B0BD17868EA
S315000025A04EF23021C0F204014EF24822C0F204027B
S315000025B0FFF77AFF29E07868FFF72AFF786839681D
S315000025C000F07AF8F860FB68002B1DD0786939694D
S315000025D0FA68FEF73BFE0346002B0CD078684EF2F5
S315000025E06421C0F204014EF27022C0F204023B697B
S315000025F0FFF75AFF09E07868FFF70AFF7B681B7A46
S315000026007D2B8BD17B6905E000BF7869FFF7C0FEA3
S315000026104FF00003184607F11807BD4680BD00BFFE
S3150000262080B584B000AF78603960FEF749FFF86086
S315000026307868FFF7EDFE2DE07B681B7A002B0BD147
S3150000264078684EF2E411C0F204014EF2F012C0F2C4
S315000026500402FFF729FF24E07868396800F02CF8B7
S31500002660B860BB68002B1BD0F868B968FFF734F870
S315000026700346002B0BD078684EF26421C0F20401A9
S315000026804EF28822C0F20402FFF70EFF09E07868D6
S31500002690FFF7BEFE7B681B7A5D2BCDD1FB6805E09C
S315000026A000BFF868FFF774FE4FF00003184607F105
S315000026B01007BD4680BD00BF80B584B000AF78600E
S315000026C039607B681B7AA3F14903322B00F2FD8047
S315000026D001A252F823F000BF67280000CB280000B3
S315000026E0CB280000CB280000CB280000CB28000018
S315000026F0A3280000CB280000CB280000CB28000030
S31500002700CB280000CB280000CB280000CB280000F7
S31500002710CB280000CB280000CB280000CB280000E7
S31500002720B1270000CB280000CB280000CB280000F2
S31500002730CB280000CB280000CB2800002D28000065
S31500002740CB280000CB280000CB2800007F28000003
S31500002750CB280000CB2800004F280000CB28000023
S31500002760CB280000CB280000CB280000252800003D
S31500002770BB280000CB280000CB280000CB28000097
S31500002780BD270000CB280000CB280000CB28000086
S31500002790CB280000CB280000CB280000CB28000067
S315000027A0A527000078683968FFF7ACFE03469BE072
S315000027B078683968FFF734FF034695E03B681B6885
S315000027C003F104013A6811601B68FB60FB68002B8B
S315000027D00DD178684EF23021C0F204014EF2A422E7
S315000027E0C0F20402FFF760FE4FF000037CE0F868D9
S315000027F04FF0FF31FFF78AFB0346002B0DD17868B7
S315000028004EF23021C0F204014EF2BC22C0F20402A4
S31500002810FFF74AFE4FF0000366E0F868FEF7CCFFCC
S31500002820034661E0FFF710F903465DE03B681B686D
S3150000283003F104013A6811601B68002B03D0FFF70F
S31500002840EFF8034602E0FFF7F5F803464CE03B6875
S315000028501B6803F104013A6811601B681846FFF70C
S3150000286031F8034640E03B681B6803F104013A680F
S3150000287011601B681846FFF725F8034634E03B68ED
S315000028801B6803F1070323F0070303F108013A6805
S315000028901160D3E9002310461946FFF765F8034691
S315000028A022E03B681B6803F104013A6811601B686B
S315000028B01846FFF753FD034616E03B681B6803F115
S315000028C004013A6811601B680EE07B681B7A786821
S315000028D04EF2E411C0F204014EF2D422C0F2040218
S315000028E0FFF7E2FD4FF00003184607F11007BD465B
S315000028F080BD00BF80B590B002AFF860B9607A6065
S315000029003B607B68002B03D07B681B78002B17D1BC
S31500002910F8684EF2E411C0F2040101F03DFE4EF2F9
S31500002920B843C0F204030093F8684FF0FF314FF04C
S31500002930FF324FF0000301F091FE4FF000033FE03D
S31500002940F8684FF0000101F027FE07F1180318465A
S31500002950F968BA687B68FFF739FD07F1180318466E
S31500002960FFF756FD3B687B6107F1180207F1140378
S3150000297010461946FFF7A0FE78637B6B002B02D149
S315000029804FF000031CE007F118031846FFF740FD5F
S3150000299097F82030002B12D0786BFFF7F9FC07F17F
S315000029A0180318464EF2E411C0F204014EF2D44266
S315000029B0C0F20402FFF778FD4FF0000300E07B6BE6
S315000029C0184607F13807BD4680BD00BF0FB480B575
S315000029D082B000AF07F114033B604FF000004FF0E8
S315000029E000013A693B68FFF785FF78607B68184607
S315000029F007F10807BD46BDE8804004B0704700BF38
S31500002A0090B597B002AF78607B68BB647B68002B9B
S31500002A1002D14FF000037BE019F094FC03465B689B
S31500002A2003F1604303F5803307F10C0210464FF0C3
S31500002A303C014EF20852C0F2040212F003FE1AF0F4
S31500002A4015FF034603F1604404F580341AF00EFFC7
S31500002A50034603F1604303F580334FEA530241F224
S31500002A60FB13C6F20E43A3FB02134FEA132207F130
S31500002A700C03009218464FF03C014EF22852C0F269
S31500002A800402234612F0DEFD1AF090FD04461AF009
S31500002A908DFD03464FEA530241F2FB13C6F20E4385
S31500002AA0A3FB02134FEA132207F10C030092184608
S31500002AB04FF03C014EF25052C0F20402234612F08F
S31500002AC0C1FDBB6C03F10103BB6478681AF0E4FD39
S31500002AD0F864FB6C002B0ED142F2D043C1F6FF73B3
S31500002AE01B6803F1010242F2D043C1F6FF731A607C
S31500002AF04FF000030CE042F23403C1F6FF731B688B
S31500002B0003F1010242F23403C1F6FF731A60FB6C53
S31500002B10184607F15407BD4690BD00BF80B584B086
S31500002B2000AF78604FF00003FB607B68002B0FD08E
S31500002B3042F21C03C1F6FF731B6803F1010242F265
S31500002B401C03C1F6FF731A6078681AF035FC00E0C2
S31500002B5000BF07F11007BD4680BD00BF80B584B039
S31500002B6000AF7860786835F0B2FB034603F10103E5
S31500002B701846FFF745FFF860FB68002B02D14FF0BF
S31500002B80000304E0F868796835F09AFBFB6818469C
S31500002B9007F11007BD4680BD80B483B000AF7860F2
S31500002BA07B68002B0AD07B685B68B3F1FF3F05D0DA
S31500002BB07B685B6803F101027B685A607B68184694
S31500002BC007F10C07BD4680BC704700BF80B582B0D8
S31500002BD000AF78607B68002B11D07B685B68B3F12F
S31500002BE0FF3F0CD07B685B6803F1FF327B685A605D
S31500002BF07B685B68002B02D17868FEF72FFF07F130
S31500002C000807BD4680BD00BF80B584B000AFF86040
S31500002C10B9607A607868FFF7BFFF0346F868B9685D
S31500002C201A46FEF713FB0346184607F11007BD4682
S31500002C3080BD00BF80B582B000AF7860396038686B
S31500002C40FFF7AAFF034678681946FEF745FD0346D7
S31500002C50184607F10807BD4680BD00BF0CB480B515
S31500002C60DAB002AF07F1040318603B4619604FF073
S31500002C70FF33C7F85C314FF0FF33C7F858314FF0D8
S31500002C800003C7F8543107F1A803C7F8503107F11C
S31500002C9004031B68002B7CD007F5B673C7F84831D0
S31500002CA007F1A80318464FF0A001D7F86821D7F816
S31500002CB0483112F069FC3B461B68002B56D03B4658
S31500002CC01B6803F128031846FFF792FAC7F84C0170
S31500002CD03B461B689B69C7F85C313B461B68DB6952
S31500002CE0C7F858313B461B685B6AC7F85431D7F8BA
S31500002CF04C31002B1ED0D7F84C311B78002B19D045
S31500002D003B461B68DB6A142B30D807F1080207F133
S31500002D10A803D7F84C11009110464FF0A0014EF2CF
S31500002D207852C0F2040212F08DFC07F10803C7F8CE
S31500002D3050311BE03B461B685B6913F1020F04D15F
S31500002D4007F1A803C7F8503110E007F1080207F1B0
S31500002D50A80310464FF0A0014EF28852C0F20402BA
S31500002D6012F070FC07F10803C7F8503107F10402AE
S31500002D704EF29C53C0F204030093D7F850310193EE
S31500002D801068D7F85C11D7F85821D7F8543101F0FC
S31500002D9065FC07F5B077BD46BDE8804002B07047D8
S31500002DA080B485B000AFF860B9607A60FB68BA6835
S31500002DB01A60FB687A685A60FB684FF000021A7264
S31500002DC0FB684FF000021A61FB684FF000025A617F
S31500002DD0FB684FF001029A61FB684FF00002DA616E
S31500002DE0FB684FF000025A6207F11407BD4680BC2B
S31500002DF0704700BF80B586B000AF786039607B68E9
S31500002E005B69002B02D07B685B69A6E07B681B6967
S31500002E107A68D3181B7A002B5BD17B681B687A68AB
S31500002E2052681046984738613B69B3F1FF3F06D1B7
S31500002E307B684FF0FF325A614FF0FF338DE03B69FC
S31500002E40DAB27B681A727B684FF000021A613B693E
S31500002E507F2B3ADD3B69FF2B37DC3B69DBB218463B
S31500002E60FEF74EFFF860FB68002B64D04FF00103BD
S31500002E707B6111E07B681B687A6852681046984748
S31500002E800346DAB279687B69CB1803F108031A7036
S31500002E907B6903F101037B617A69FB689A42E9DB8E
S31500002EA07B6803F108031846F9684FF00002FEF745
S31500002EB06BFF0346002B40D07A68FB68D31803F1FA
S31500002EC008034FF000021A7003E07B684FF000021F
S31500002ED05A727B681B697A68D218127A3A6103F1D2
S31500002EE001027B681A617B685B6A03F101027B68F9
S31500002EF05A623B690A2B0ED17B689B6903F101027A
S31500002F007B689A617B68DA697B681A627B684FF036
S31500002F100002DA610DE03B69DBB21846FEF7F0FE0F
S31500002F200346002B05D07B68DB6903F101027B6851
S31500002F30DA613B6911E000BF00E000BF7B686FF01B
S31500002F4001025A61386879684EF2A052C0F2040252
S31500002F503B69FFF783FE6FF00103184607F1180778
S31500002F60BD4680BD80B582B000AF786039603B68F1
S31500002F70B3F1FF3F2CD03B6813F1020F28D07B68DA
S31500002F805B6A03F1FF327B685A623B680A2B0AD1FF
S31500002F907B689B6903F1FF327B689A617B681A6ADA
S31500002FA07B68DA610DE03B68DBB21846FEF7A8FEE7
S31500002FB00346002B05D07B68DB6903F1FF327B6893
S31500002FC0DA617B681B6903F1FF327B681A6100E0F6
S31500002FD000BF07F10807BD4680BD00BF80B582B0BF
S31500002FE000AF786039607B6818463968FFF702FFE2
S31500002FF00346184607F10807BD4680BD80B582B076
S3150000300000AF786039607B6803F128023B68DBB269
S3150000301010461946FFF7F8F807F10807BD4680BDC8
S3150000302080B584B000AF786039607B68184639682F
S31500003030FFF7E0FEF860FB68B3F1FF3F07D0FB68DF
S3150000304013F1020F03D07868F968FFF7D7FFFB6822
S31500003050184607F11007BD4680BD00BF80B582B097
S3150000306000AF786039607B6818463968FFF77AFFE9
S3150000307007F10807BD4680BD80B584B000AF786013
S3150000308039603B68B3F1FF3F10D03B6813F1020F84
S315000030900CD07B6818463968FFF764FF7B6803F13C
S315000030A028031846FFF732F90346FB7307F11007AA
S315000030B0BD4680BD80B582B000AF786014E07B6805
S315000030C01B697A68D3181B7A78681946FFF796FF4A
S315000030D07B681B6903F101027B681A617B685B6A86
S315000030E003F101027B685A627B681B697A68D31810
S315000030F01B7A002BE3D107F10807BD4680BD00BF50
S3150000310080B487B000AF78604FF000033B614FF0AA
S3150000311001037B6132E07B697A68D3181B78FB7305
S315000031203B694FEA03133B61FB7B2F2B09D9FB7BE2
S31500003130392B06D8FB7BA3F130033A69D3183B61E0
S3150000314018E0FB7B602B09D9FB7B7A2B06D8FB7B2F
S31500003150A3F157033A69D3183B610BE0FB7B402B85
S3150000316008D9FB7B5A2B05D8FB7BA3F137033A69B9
S31500003170D3183B617B6903F101037B617B69042BF7
S31500003180C9DD3B69184607F11C07BD4680BC704780
S3150000319080B58CB002AF786039607B684FF0000272
S315000031A09A637B684FF0FF325A6378683968FFF795
S315000031B037FF78629AE07B6A13F1020F00F0AB8169
S315000031C07B6AB3F1FF3F08D1386879684EF2BC528A
S315000031D0C0F20402FFF742FDA0E17B6A002B1DDB73
S315000031E07B6A1F2B1ADC7868796AFFF745FF7B6AD2
S315000031F00A2B09D1386879684EF2D452C0F204021B
S315000032007B6AFFF72BFD89E1386879684EF2E85250
S31500003210C0F204027B6AFFF721FD7FE17B6A5C2B2B
S315000032205FD178683968FFF7FBFE78627B6A752B99
S3150000323030D178683968FFF7F3FE78624FF0000303
S31500003240BB6123E07B6A2F2B02DD7B6A392B14DD01
S315000032507B6A402B11DC7B6A462B0EDD7B6A602B7A
S315000032600BDC7B6A662B08DD386879684EF20062F3
S31500003270C0F20402FFF7F2FC50E178683968FFF704
S31500003280CFFE7862BB6903F10103BB61BB69032B07
S31500003290D8DD2BE07B6A222B14D07B6A5C2B11D005
S315000032A07B6A2F2B0ED07B6A622B0BD07B6A662B38
S315000032B008D07B6A6E2B05D07B6A722B02D07B6AA4
S315000032C0742B05D178683968FFF7AAFE78620DE09D
S315000032D0386879684EF20062C0F20402FFF7BEFC5D
S315000032E01CE178683968FFF79BFE78627B6A222BBF
S315000032F07FF461AF7B68DB6A03F101031846FFF7D1
S315000033007FFB02467B689A637B689B6B002B00F011
S3150000331004817B689B6BFB617B6803F1280318467D
S31500003320FEF766FF034603F101033B62E5E03B6AF5
S315000033301B785C2B40F0D5803B6A03F101033B62AE
S315000033403B6A1B78752B40F08C80386AFFF7D8FEF5
S3150000335078613B6A03F105033B627A694DF2FF73BC
S315000033609A4248DD7A694DF6FF339A4243DC3B6A5E
S315000033701B785C2B35D13B6A03F101031B78752B57
S315000033802FD13B6A03F101033B62386AFFF7B8FEAF
S3150000339038613B6A03F105033B623A694DF6FF3338
S315000033A09A4212DD3A694DF6FF739A420DDC7B694B
S315000033B0A3F558434FEA83223B69A3F55C43D31830
S315000033C003F580337B6100BF35E03B6900933868C5
S315000033D079684EF21062C0F204027B69FFF73EFC88
S315000033E09CE0386879684EF23062C0F204027B696C
S315000033F0FFF734FC92E07A694DF6FF339A420EDD10
S315000034007A694DF6FF739A4209DC386879684EF29C
S315000034103062C0F204027B69FFF720FC7EE07B6924
S31500003420002B08D1386879684EF24C62C0F204026B
S31500003430FFF714FC72E007F10C0207F10803786944
S3150000344011461A46FEF7ACFBBB6807F10C02F86999
S3150000345011461A4634F0F3FEBB68FA69D318FB61CD
S315000034604BE03B6A1B78662B1ED0662B0BDC5C2B75
S3150000347010D05C2B04DC222B0CD02F2B0AD027E09B
S31500003480622B0CD024E0722B18D0742B1BD06E2B21
S315000034900FD01DE03B6A1A78FB691A7018E0FB69C9
S315000034A04FF008021A7013E0FB694FF00C021A7015
S315000034B00EE0FB694FF00A021A7009E0FB694FF053
S315000034C00D021A7004E0FB694FF009021A7000BF82
S315000034D0FB6903F10103FB613B6A03F101033B62F4
S315000034E00BE03B6A1A78FB691A70FB6903F101036A
S315000034F0FB613B6A03F101033B623B6A1B78222BAB
S315000035007FF415AFFB694FF000021A707B684FF429
S3150000351080725A6307E000BF00E000BF7B689B6BC8
S315000035201846FFF7FBFA07F12807BD4680BD00BF26
S3150000353080B58AB000AFF860B9607A60FB684FF07A
S31500003540FF325A63BB682D2B04D1F8687968FFF700
S3150000355067FDB860BB68302B0FD1F8687968FFF754
S315000035605FFDB860BB682F2B25DDBB68392B22DCDD
S31500003570F868B968FFF780FDE6E0BB682F2B14DD1D
S31500003580BB68392B11DCF8687968FFF749FDB8602C
S3150000359004E0F8687968FFF743FDB860BB682F2B35
S315000035A008DDBB68392BF4DD04E0F868B968FFF77D
S315000035B063FDC9E000BFBB682E2B46D0BB68452B18
S315000035C043D0BB68652B40D0F868B968FFF754FD57
S315000035D0FB6803F128031846FEF70AFE786244F2F8
S315000035E02C73C1F6FF734FF000021A6007F11C033B
S315000035F0786A19464FF00A0234F02EFD386244F21A
S315000036002C73C1F6FF731B68222B14D13B6A002B67
S3150000361008DA7868F9684EF26462C0F20402FFF7CD
S315000036201DFB91E07868F9684EF28062C0F20402F0
S31500003630FFF714FB88E0FB6840F201125A63FB684F
S315000036403A6A9A634FF0000380E0BB682E2B24D1C0
S31500003650F8687968FFF7C2FCB860BB682F2B02DDFB
S31500003660BB68392B04DDF868B968FFF7F7FC6BE037
S31500003670F868B968FFF7C2FCF8687968FFF7D0FC0C
S31500003680B86004E0F8687968FFF7CAFCB860BB6800
S315000036902F2B02DDBB68392BF4DDBB68452B02D02E
S315000036A0BB68652B2BD1F8687968FFF7B9FCB86061
S315000036B0BB682B2B02D0BB682D2B04D1F868796828
S315000036C0FFF7AEFCB860BB682F2B02DDBB68392B59
S315000036D004DDF868B968FFF7CFFC35E0F86879686B
S315000036E0FFF79EFCB86004E0F8687968FFF798FC7D
S315000036F0B860BB682F2B02DDBB68392BF4DDF86898
S31500003700B968FFF7B9FCFB6803F1280207F110035B
S3150000371010461946FEF74AFC0346002B08D0786887
S31500003720F9684EF29062C0F20402FFF797FA0BE0D6
S31500003730FB684FF481725A63D7E90423F968C1E93B
S315000037400E234FF0000301E04FF0FF33184607F158
S315000037502807BD4680BD00BF80B584B000AF786045
S3150000376039607B6803F128031846FEF72FFD7B6856
S315000037705B6BB3F5807F08D17B689B6B1846FFF7C0
S31500003780CDF97B684FF000029A6378683968FFF7D5
S3150000379025FCF86004E078683968FFF71FFCF860DC
S315000037A0FB68202BF7D0FB68092BF4D0FB680A2BAB
S315000037B0F1D0FB680D2BEED0FB68B3F1FF3F04D1CF
S315000037C07B684FF000025A63A2E0FB6813F1020F18
S315000037D004D17B684FF0FF325A6399E07868F96844
S315000037E0FFF70CFCFB687B2B0ED0FB687D2B0BD008
S315000037F0FB685B2B08D0FB685D2B05D0FB683A2B7A
S3150000380002D0FB682C2B03D17B68FA685A637FE0F1
S31500003810FB68222B04D178683968FFF7B9FC77E09A
S31500003820FB682F2B02DDFB68392B02DDFB682D2B95
S3150000383007D17868F9683A68FFF77AFE0346002BE5
S3150000384066E0FB68402B02DDFB685A2B05DDFB6852
S31500003850602B56DDFB687A2B53DC78683968FFF7F6
S31500003860DFFBF86004E078683968FFF7D9FBF86099
S31500003870FB68402B02DDFB685A2BF4DDFB68602BEE
S3150000388002DDFB687A2BEEDD7868F968FFF7F4FB5A
S315000038907B6803F128031846FEF7AAFCB860B868EF
S315000038A04EF2A861C0F2040134F0FDFC0346002B81
S315000038B004D17B6840F203125A6329E0B8684EF2DD
S315000038C0B061C0F2040134F0EEFC0346002B04D1D3
S315000038D07B684FF482725A631AE0B8684EF2B86198
S315000038E0C0F2040134F0DFFC0346002B04D17B68F0
S315000038F040F205125A630BE07B684FF0FF325A63C1
S3150000390006E07868FFF7D6FB7B684FF0FF325A6314
S315000039107B685B6B184607F11007BD4680BD00BF8C
S3150000392080B485B000AF78604FF00003FB607B6821
S315000039305B6BB3F5807F06D17B689B6BFB607B6816
S315000039404FF000029A63FB68184607F11407BD465C
S3150000395080BC704780B584B000AFF860B9607A600B
S31500003960FB681846B9687A68FFF71AFAFB6803F12C
S3150000397028031846FEF7E8FB0346002B02D04FF05B
S31500003980FF3305E0FB684FF0FF325A634FF0000348
S31500003990184607F11007BD4680BD00BF80B582B04E
S315000039A000AF78607B685B6BB3F5807F04D17B6882
S315000039B09B6B1846FFF7B2F87B6803F1280318469D
S315000039C0FEF7EAFB07F10807BD4680BD80B588B063
S315000039D000AFF860B9607A60FDF7BEFBF861FB697D
S315000039E0002B02D14FF0000395E0F8687968FFF7E5
S315000039F0B3FEFB685B6B7D2B01D1FB698BE0FB683B
S31500003A005B6BB3F5807F08D07868F9684EF2C062C8
S31500003A10C0F20402FFF722F978E0F868FFF780FFAA
S31500003A20B861BB69002B02D14FF0000373E0BB689D
S31500003A3003F00103002B12D0F869B969FDF7E8FB22
S31500003A400346002B0BD0B869FFF768F87868F96869
S31500003A504EF2D862C0F20402FFF700F956E0F868A9
S31500003A607968FFF779FEFB685B6B3A2B0BD0B86978
S31500003A70FFF754F87868F9684EF2F062C0F2040273
S31500003A80FFF7ECF842E0F8687968FFF765FEF8683A
S31500003A90B9687A6800F0A2F878617B69002B03D1D7
S31500003AA0B869FFF73BF831E0F869B9697A69FFF759
S31500003AB0ABF80346002B06D0B869FFF72FF87869F4
S31500003AC0FFF784F822E07869FFF780F8B869FFF716
S31500003AD025F8F8687968FFF73FFEFB685B6B2C2BCF
S31500003AE004D1F8687968FFF737FE88E700BFFB68FE
S31500003AF05B6B7D2B08D07868F9684EF20072C0F2D5
S31500003B000402FFF7ABF801E0FB6904E0F869FFF790
S31500003B105DF84FF00003184607F12007BD4680BD4B
S31500003B2080B586B000AFF860B9607A60FDF7C8FC72
S31500003B3078617B69002B02D14FF0000349E0F868F9
S31500003B407968FFF709FEFB685B6B5D2B25D17B6906
S31500003B503FE0F868B9687A6800F040F838613B6978
S31500003B60002B30D078693969FFF764F80346002BDB
S31500003B7003D03869FFF72AF826E03869FFF726F8F8
S31500003B80F8687968FFF7E8FDFB685B6B2C2B0AD1B8
S31500003B90F8687968FFF7E0FD00E000BFFB685B6B43
S31500003BA0002BD6D100E000BFFB685B6B5D2B08D015
S31500003BB07868F9684EF21072C0F20402FFF74EF808
S31500003BC002E07B6905E000BF7869FEF7FFFF4FF072
S31500003BD00003184607F11807BD4680BD80B586B0BC
S31500003BE000AFF860B9607A60FB685B6B40F2011267
S31500003BF0934228D040F2011293420DDC5B2B45D054
S31500003C005B2B03DCB3F1FF3F47D051E07B2B36D073
S31500003C10B3F5807F10D04BE040F20312934222D0DE
S31500003C2040F20312934215DBB3F5827F1FD040F2B8
S31500003C30051293421FD03BE0FB689B6B1846FDF7CD
S31500003C40BBFD78613FE0FB689B6B1846FDF73AFECB
S31500003C50786138E0FB68D3E90E2310461946FDF774
S31500003C6083FE78612FE0FDF7DBFE78612BE0FDF740
S31500003C70E1FE786127E0FDF7E7FE786123E0F8686A
S31500003C80B9687A68FFF7A2FE78611CE0F868B9683F
S31500003C907A68FFF745FF786115E07868F9684EF2B3
S31500003CA02072C0F20402FEF7D9FF4FF0000311E0C4
S31500003CB07868F9684EF23072C0F20402FEF7CEFF61
S31500003CC04FF0000306E07B69002B02D14FF00003A2
S31500003CD000E07B69184607F11807BD4680BD00BFA6
S31500003CE080B586B000AFF860B9607A60F868796828
S31500003CF0FFF732FDBB6803F00403002B12D1FB680B
S31500003D005B6B5B2B0ED0FB685B6B7B2B0AD07868FA
S31500003D10F9684EF24472C0F20402FEF79FFF4FF0BC
S31500003D2000032FE0F868B9687A68FFF757FF7861F3
S31500003D307B69002B02D14FF0000323E0BB6803F040
S31500003D400203002B15D1F8687968FFF705FDFB68BB
S31500003D505B6B002B0DD07868F9684EF25872C0F292
S31500003D600402FEF77BFF7869FEF730FF4FF0000391
S31500003D7008E07B68002B04D0FB685B6A1A467B6808
S31500003D809A607B69184607F11807BD4680BD00BFDB
S31500003D9080B485B000AF78607B68FB60FB681A680A
S31500003DA0FB685B68D3181B78FB72FB7A002B02D189
S31500003DB04FF0FF3306E0FB685B6803F10102FB6826
S31500003DC05A60FB7A184607F11407BD4680BC704757
S31500003DD080B598B000AFF860B9607A6078684EF246
S31500003DE07071C0F2040100F0D7FBFB68002B0BD109
S31500003DF078684FF000014EF27C72C0F20402FEF7C2
S31500003E002DFF4FF0000324E0FB683B614FF00003F9
S31500003E107B6107F1180207F11003104643F6915132
S31500003E20C0F200011A46FFF795FD0346002B02D0AB
S31500003E304FF000030DE007F118031846B9687A68D9
S31500003E40FFF74EFFF86507F118031846FFF7A6FDC2
S31500003E50FB6D184607F16007BD4680BD80B582B090
S31500003E6000AF78607B68002B11D07B685B68B3F18C
S31500003E70FF3F0CD07B685B6803F1FF327B685A60BA
S31500003E807B685B68002B02D17868FDF7E7FD07F1D8
S31500003E900807BD4680BD00BF80B487B000AF78601C
S31500003EA07B687B6141F205533B617B691B78FB6054
S31500003EB00EE03B694FEA43123B69D218FB68D31800
S31500003EC03B617B6903F101037B617B691B78FB60C6
S31500003ED0FB68002BEDD13B69184607F11C07BD4670
S31500003EE080BC704780B483B000AF78607B687A6826
S31500003EF05A607B687A681A6007F10C07BD4680BC79
S31500003F00704700BF80B483B000AF786039603B680B
S31500003F107A685A607B681A683B681A607B681B6817
S31500003F203A685A607B683A681A6007F10C07BD4622
S31500003F3080BC704780B483B000AF78607B681B6834
S31500003F407A6852685A607B685B687A6812681A6099
S31500003F5007F10C07BD4680BC704700BF80B483B034
S31500003F6000AF786039603B681A687B6803F10C0320
S31500003F709A4208D13B681A683B685B689A4202D14C
S31500003F804FF0010301E04FF00003184607F10C075C
S31500003F90BD4680BC704700BF80B584B000AFF860F6
S31500003FA0B9607A60F868B968FFF7D8FF0346002B56
S31500003FB00ED0FB6803F10C0318467968FFF7A2FFE1
S31500003FC0BB687A685A60BB685A68BB681A6008E0C2
S31500003FD0BB681B6818467968FFF794FFBB687A6868
S31500003FE01A6007F11007BD4680BD00BF80B483B0DC
S31500003FF000AF78607B689A6840F21803C1F6FF73D9
S3150000400053F82230184607F10C07BD4680BC7047AE
S3150000401080B586B000AFF860B9607A603B60F8683A
S31500004020B968FFF79BFF0346002B02D04FF0000351
S3150000403023E0BB681B687B617B69A3F104033B61DA
S315000040403B691A683B689A420BD13B6903F114033A
S315000040501846796834F027F90346002B01D13B69ED
S315000040600BE0BB685A687B699A4203D07B695B6840
S315000040707B61E1E700BF4FF00003184607F1180720
S31500004080BD4680BD80B588B000AFF860B9607A6083
S31500004090F868FFF7ABFF02467B68B3FBF2F102FB61
S315000040A001F29B1AFB61FB685A68FB694FEAC3037E
S315000040B0D318BB61F868B969BA687B68FFF7A8FFCF
S315000040C078617B69002B02D14FF0FF3344E07B69B6
S315000040D003F10402BB691B689A4210D17B6903F1A4
S315000040E00402BB695B689A4209D1FB6803F10C02C2
S315000040F0BB695A60BB695A68BB691A6016E07B697E
S3150000410003F10402BB691B689A4204D17B699A6871
S31500004110BB691A600AE07B6903F10402BB695B684C
S315000041209A4203D17B695A68BB695A607B6903F17D
S3150000413004031846FFF7FEFE7B69DB681846FFF7A7
S315000041408DFE7869FEF7EAFCFB681B6803F1FF3217
S31500004150FB681A604FF00003184607F12007BD46BA
S3150000416080BD00BF80B586B000AF78607B681B69F4
S315000041707B6110E07B695B683B617B69A3F10403AB
S31500004180FB60FB68DB681846FFF768FEF868FEF719
S31500004190C5FC3B697B617B6803F10C027B699A4233
S315000041A0E8D107F11807BD4680BD00BF80B588B0CD
S315000041B000AF78607B685B681846FEF7AFFC7B68EB
S315000041C09B6803F101027B689A607868FFF70EFF2F
S315000041D078617B694FEAC3031846FEF711FC024675
S315000041E07B685A607B685B68002B02D14FF0FF3317
S315000041F053E04FF00003BB6115E07B685A68BB696A
S315000042004FEAC303D2187B685968BB694FEAC303F8
S31500004210CB18796801F10C0159605B681360BB69C2
S3150000422003F10103BB617868FFF7E0FE0246BB6954
S315000042309A42E2D87B681B69FB617B6803F10C0339
S315000042401846FFF74FFE20E0FB695B683B61FB69A0
S31500004250A3F10403FB60FB681B687A69B3FBF2F207
S31500004260796901FB02F29B1ABB607B685A68BB68DE
S315000042704FEAC303D218FB6803F1040378681146BA
S315000042801A46FFF789FE3B69FB617B6803F10C0266
S31500004290FB699A42D8D14FF00003184607F1200770
S315000042A0BD4680BD80B584B000AF78607B684FF0B6
S315000042B000021A607B684FF000029A607868FFF788
S315000042C095FE03464FEAC3031846FEF799FB0246DE
S315000042D07B685A607B685B68002B02D14FF0FF3326
S315000042E028E07B6803F10C031846FFF7FBFD4FF04F
S315000042F00003FB6015E07B685A68FB684FEAC3035E
S31500004300D2187B685968FB684FEAC303CB187968F3
S3150000431001F10C0159605B681360FB6803F101034E
S31500004320FB607868FFF762FE0246FB689A42E2D8B5
S315000043304FF00003184607F11007BD4680BD00BFC9
S3150000434080B582B000AF78607868FFF70BFF7B68B6
S315000043505B681846FEF7E2FB07F10807BD4680BD1D
S3150000436090B589B000AFF860B9607A603B60FB68D1
S315000043701C68F868FFF73AFE03469C4208D3F868C3
S31500004380FFF714FF0346002B02D04FF0FF335EE029
S31500004390B868FFF781FDF861F868FFF727FE024667
S315000043A0FB69B3FBF2F102FB01F29B1ABB61FB68EE
S315000043B05A68BB694FEAC303D3187B61F868796909
S315000043C0BA68FB69FFF724FE38613B69002B08D009
S315000043D03B69DB681846FFF741FD3B693A68DA60DE
S315000043E033E0B86833F073FF034603F1150318464C
S315000043F0FEF706FB38613B69002B02D14FF0FF3315
S3150000440025E03B69FA691A603B697A681A613B697B
S3150000441003F114031846B96833F052FF3B693A6852
S31500004420DA603B6903F104031846FFF75BFD3B695D
S3150000443003F10403F86879691A46FFF7ADFDFB68D6
S315000044401B6803F10102FB681A604FF0000318466F
S3150000445007F12407BD4690BD90B587B000AF7860E0
S3150000446039603868FFF718FD78617B685C687868A2
S31500004470FFF7BCFD02467B69B3FBF2F102FB01F2DA
S315000044809B1A4FEAC303E3183B61786839693A68B7
S315000044907B69FFF7BDFDF860FB68002B02D14FF08A
S315000044A0000301E0FB68DB68184607F11C07BD4600
S315000044B090BD00BF80B584B000AF786039603868C1
S315000044C0FFF7EAFCF86078683968FA68FFF7DAFD02
S315000044D00346184607F11007BD4680BD80B582B079
S315000044E000AF78607B6803F10C037868194600F02A
S315000044F007F80346184607F10807BD4680BD00BF0A
S3150000450080B485B000AF786039603B68FB60FB68BB
S315000045105A687B6803F10C039A4202D14FF00003FC
S3150000452001E0FB685B68184607F11407BD4680BCCE
S31500004530704700BF80B485B000AF78607B68A3F198
S315000045400403FB60FB6803F11403184607F1140724
S31500004550BD4680BC704700BF80B485B000AF7860B0
S315000045607B68A3F10403FB60FB681B69184607F12F
S315000045701407BD4680BC704780B485B000AF786034
S315000045807B68A3F10403FB60FB68DB68184607F150
S315000045901407BD4680BC704780B582B000AF786016
S315000045A039607B68002B1CD07B684FF0000283F8D3
S315000045B05C207B684FF0FF321A607B684FF0FF3259
S315000045C05A607B684FF000029A603B68002B04D06B
S315000045D07868396800F00AF803E07B684FF000025B
S315000045E01A7307F10807BD4680BD00BF80B584B0C9
S315000045F000AF786039607B68002B29D03B68002BC0
S3150000460026D0386833F063FEF860FB684F2B07D876
S315000046107B6803F10C031846396833F051FE18E045
S31500004620FB68A3F14C03BB607B6803F10C024EF2FE
S31500004630AC73C0F20403186810607B6803F10F02C4
S315000046403968BB68CB181046194633F039FE00E0CE
S3150000465000BF07F11007BD4680BD00BF80B588B01A
S3150000466002AFF860B9607A603B6007F124037B61B2
S315000046703B6A00937B690193F868B9687A683B687E
S3150000468000F004F807F11807BD4680BD80B584B078
S3150000469000AFF860B9607A603B60FB68002B18D009
S315000046A0FB6893F85C30002B15D1FB68BA681A607A
S315000046B0FB687A685A603A68FB689A60FB6803F19F
S315000046C05C0318464FF0A001BA69FB6910F05CFF65
S315000046D002E000BF00E000BF07F11007BD4680BD45
S315000046E080B584B000AFF860B9607A607868F96820
S315000046F0BA68FDF79DFD0346184607F11007BD464B
S3150000470080BD00BF80B586B000AFF860B9607A6042
S315000047103B60FB6803F01F03002B2ED0FB6803F001
S315000047201F033B613B684EF2B070C0F204004FF0CD
S3150000473001013A6A98470346002B02D04FF0FF3337
S3150000474030E04FF000037B6112E03A693B6840F2CB
S315000047508C00C1F6FF7011463A6A98470346002B53
S3150000476002D04FF0FF331DE07B6903F101037B614B
S315000047707A69BB689A42E8DB12E07B68002B0FD0AF
S31500004780FB6803F02003002B0AD13B684EF2B4709D
S31500004790C0F204004FF001013A6A9847034601E06F
S315000047A04FF00003184607F11807BD4680BD00BF4D
S315000047B080B590B000AFF860B9607A603B607B6806
S315000047C04EF2B870C0F204004FF001013A68984703
S315000047D00346002B02D04FF0FF33DDE0FB68FB639E
S315000047E0FB6BBB631DE007F12403F86B1946FDF76D
S315000047F053FBB863BB6B002B02D14FF0FF33CBE00A
S315000048007B6A5C2B13D07B6A222B10D07B6A1F2B12
S315000048100DDDBB68002B02D07B6A7F2B06DCBB6BF1
S31500004820FB63BB6B1B78002BDDD100E000BFFA6B8E
S31500004830FB689A420ED0FA6BFB68D31A1A467B685D
S31500004840F86811463A6898470346002B02D04FF0A5
S31500004850FF33A1E0BA6BFB6B9A4200F093804FF0F6
S3150000486002033B637B6A0C2B21D00C2B06DC092B45
S315000048702FD00A2B21D0082B13D030E0222B0AD0C0
S315000048805C2B02D00D2B1ED029E04EF2BC73C0F279
S3150000489004037B6364E04EF2C073C0F204037B63DF
S315000048A05EE04EF2C473C0F204037B6358E04EF23E
S315000048B0C873C0F204037B6352E04EF2CC73C0F2BD
S315000048C004037B634CE04EF2D073C0F204037B63B7
S315000048D046E04EF2D473C0F204037B6340E07A6A8A
S315000048E04FF6FF739A420FDC7B6A9BB207F1140204
S315000048F010464EF2D871C0F204011A4610F07EFE40
S315000049004FF006033B6327E07B6AA3F580337B62A7
S315000049107A6A4FF47C43C0F20F0313404FEAA32395
S3150000492043F45843FB627B6A4FEA83534FEA93533F
S3150000493043F45C43BB62FB6A9BB21A46BB6A9BB2FA
S3150000494007F1140108464EF2E071C0F2040110F0BE
S3150000495055FE4FF00C033B6307F114037B6300BF66
S315000049603A6B7B68786B11463A6898470346002B8A
S3150000497002D04FF0FF330FE0BB6BFB63FB6BFB60BA
S3150000498000BF4EE77B684EF2B870C0F204004FF0ED
S3150000499001013A6898470346184607F14007BD46A5
S315000049A080BD00BF80B582B000AF786039607B689B
S315000049B05A683B685B681046194633F074FC034638
S315000049C0184607F10807BD4680BD00BF80B485B014
S315000049D000AF786039607B681B68FB603B681B68CA
S315000049E0BB60FA68BB689A4207D3FA68BB689A420A
S315000049F00CBF00230123DBB201E04FF0FF33184662
S31500004A0007F11407BD4680BC704700BF90B5B3B030
S31500004A1002AFF860B9607A603B60BB6803F04003A0
S31500004A20002B0CBF00230123DBB2C7F8A430FB68C0
S31500004A301B78072B00F2268301A252F823F000BF51
S31500004A40D94C0000534B0000374B0000A94A000028
S31500004A50F14A0000794A0000914A0000614A0000CC
S31500004A603B684EF2F070C0F204004FF00401D7F834
S31500004A70D0209847034607E33B684EF2F870C0F231
S31500004A8004004FF00401D7F8D02098470346FBE214
S31500004A903B684EF60000C0F204004FF00501D7F85F
S31500004AA0D02098470346EFE2F868FCF729FF034653
S31500004AB007F1100210464FF064014EF60802C0F2EC
S31500004AC0040210F0BFFDC7F8A000D7F8A030632B92
S31500004AD002DD4FF0FF33D7E2D7F8A02007F110012F
S31500004AE03B6808461146D7F8D02098470346CBE2E4
S31500004AF0F868FCF75BFFC7E9260107F110031846C3
S31500004B004FF06401D7E92623FDF788FAC7F8940029
S31500004B10D7F89430002B02DA4FF0FF33B4E2D7F81F
S31500004B20942007F110013B6808461146D7F8D020BB
S31500004B3098470346A8E2F868FCF78CFE0346184639
S31500004B40D7F8A4103A68D7F8D030FFF731FE0346FD
S31500004B509AE2FB68C7F89030D7F890305B69002B73
S31500004B6040F0A980D7F890304FF001025A61F868FA
S31500004B70FCF708FD0346C7F88C303B684EF60C0080
S31500004B80C0F204004FF00101D7F8D0209847034641
S31500004B90002B40F09280D7F88C30002B10D1D7F83C
S31500004BA090304FF000025A613B684EF61000C0F29A
S31500004BB004004FF00101D7F8D0209847034663E27E
S31500004BC07B6803F10103D7F8D0200092B868194634
S31500004BD04FF000023B68FFF795FD0346002B6ED1B0
S31500004BE04FF00003C7F8BC304EE0D7F8BC30F86889
S31500004BF01946FCF7DDFC02467B6803F10103D7F892
S31500004C00D01000911046B9681A463B68FFF7FEFEC1
S31500004C100346002B55D1D7F88C3003F1FF32D7F875
S31500004C20BC309A421DDD3B684EF61400C0F204000B
S31500004C304FF00101D7F8D02098470346002B43D107
S31500004C407B6803F10103D7F8D0200092B8681946B3
S31500004C504FF001023B68FFF755FD0346002B33D1A9
S31500004C600CE0D7F8D0300093B86879684FF00002AE
S31500004C703B68FFF747FD0346002B24D1D7F8BC302D
S31500004C8003F10103C7F8BC30D7F8BC20D7F88C3045
S31500004C909A42AADBD7F890304FF000025A613B687F
S31500004CA04EF61000C0F204004FF00101D7F8D020F4
S31500004CB098470346E8E100BF06E000BF04E000BFF6
S31500004CC002E000BF00E000BFD7F890304FF00002CE
S31500004CD05A614FF0FF33D7E1BB6803F02003002B86
S31500004CE00AD04EF61803C0F20403C7F8B4304FF0EA
S31500004CF00103C7F8B03009E04EF61C03C0F2040306
S31500004D00C7F8B4304FF00203C7F8B030FB68C7F8F5
S31500004D108830D7F888301B6A002B40F0A281D7F87C
S31500004D2088304FF001021A62F868FCF711FBC7F8E9
S31500004D30B8003B684EF62000C0F204004FF00101B7
S31500004D40D7F8D02098470346002B40F08C81D7F83F
S31500004D50B830002B10D1D7F888304FF000021A6215
S31500004D603B684EF62400C0F204004FF00101D7F86C
S31500004D70D0209847034687E17B6803F10103D7F803
S31500004D80D0200092B86819464FF000023B68FFF742
S31500004D90B9FC0346002B40F06881BB6803F0800332
S31500004DA0002B05D1BB6803F48073002B00F044810F
S31500004DB0F868FCF715FAC7F88000D7F880304FEA94
S31500004DC0C3031846FDF71CFEF867FB6F002B00F0C7
S31500004DD04E814FF00003C7F8AC3024E0D7F8AC3072
S31500004DE04FEAC303FA6FD418D7F8B800FFF7B4FB3D
S31500004DF003462360D7F8AC304FEAC303FA6FD418E2
S31500004E00D7F8B800FCF7E2FA03466360F868D7F80B
S31500004E10B810FCF7B9FAC7F8B800D7F8AC3003F108
S31500004E200103C7F8AC30D7F8B830002BD6D1BB6831
S31500004E3003F08003002B06D044F6A513C0F200034E
S31500004E40C7F8A83005E044F6CD13C0F20003C7F852
S31500004E50A830F86FD7F880104FF00802D7F8A830BE
S31500004E6033F04EF94FF00003C7F8AC3073E0D7F8D3
S31500004E70AC304FEAC303FA6FD3185B68BB67F868B8
S31500004E80B96FFCF7C5F97867B86FD7F8A4103A6818
S31500004E90D7F8D030FFF78CFCD7F8B0203B68D7F8AE
S31500004EA0B4001146D7F8D02098470346002B0ED100
S31500004EB07B6803F10103D7F8D0200092786FB968B8
S31500004EC01A463B68FFF7A2FD0346002B03D0F86F96
S31500004ED0FDF724FECEE0D7F8803003F1FF32D7F895
S31500004EE0AC309A4220D93B684EF61400C0F204005A
S31500004EF04FF00101D7F8D02098470346002B0FD179
S31500004F007B6803F10103D7F8D0200092B8681946F0
S31500004F104FF001023B68FFF7F5FB0346002B14D068
S31500004F20F86FFDF7FBFDA5E0D7F8D0300093B86821
S31500004F3079684FF000023B68FFF7E4FB0346002B5D
S31500004F4003D0F86FFDF7EAFD94E0D7F8AC3003F133
S31500004F500103C7F8AC30D7F8AC20D7F880309A42B6
S31500004F6085D3F86FFDF7DAFD6AE0F868D7F8B81070
S31500004F70FCF70AFAC7F88400D7F8B800FCF726FA57
S31500004F8003461846D7F8A4103A68D7F8D030FFF78A
S31500004F900FFCD7F8B0203B68D7F8B4001146D7F815
S31500004FA0D02098470346002B64D1D7F8B800FCF709
S31500004FB021FA02467B6803F10103D7F8D01000916D
S31500004FC01046B9681A463B68FFF720FD0346002BDA
S31500004FD050D1D7F88430002B1DD03B684EF6140014
S31500004FE0C0F204004FF00101D7F8D02098470346DD
S31500004FF0002B3FD17B6803F10103D7F8D020009244
S31500005000B86819464FF001023B68FFF77BFB034681
S31500005010002B2FD10CE0D7F8D0300093B868796810
S315000050204FF000023B68FFF76DFB0346002B20D1D3
S31500005030D7F88430C7F8B830D7F8B830002B94D1F9
S31500005040D7F888304FF000021A623B684EF624000B
S31500005050C0F204004FF00101D7F8D020984703466C
S3150000506012E000BF06E000BF04E000BF02E000BFA0
S3150000507000E000BFD7F888304FF000021A624FF008
S31500005080FF3301E04FF0FF33184607F1C407BD4672
S3150000509090BD00BF80B586B000AF7860396007F17B
S315000050A008031846FDF750F80346002B02D04FF0D0
S315000050B0000321E007F10803786844F2E161C0F2D9
S315000050C000011A463B6800F01DF80346002B03D08A
S315000050D04FF000037B6109E007F108031846FDF76E
S315000050E087F803461846FDF739FD786107F108038E
S315000050F01846FDF751F87B69184607F11807BD46B3
S3150000510080BD00BF80B586B002AFF860B9607A6036
S315000051103B603B6803F40073002B10D1FB68002B47
S3150000512003D0FB681B78012B09D0FB68002B03D04A
S31500005130FB681B78002B02D04FF0FF3309E07B6839
S315000051400093F86839684FF00002BB68FFF75EFC11
S315000051500346184607F11007BD4680BD80B483B0EC
S3150000516000AF4FF00003FB715FE0F97940F6C062D3
S31500005170C1F6FF720B464FEA43035B184FEA8303FF
S31500005180D3184FF000021A60F97940F6C062C1F6F2
S31500005190FF720B464FEA43035B184FEA8303D318AB
S315000051A04FF000021A71F97940F6C062C1F6FF723B
S315000051B00B464FEA43035B184FEA8303D3184FF0BD
S315000051C000025A71F97940F6C062C1F6FF720B46C9
S315000051D04FEA43035B184FEA8303D3184FF0640288
S315000051E09A71F97940F6C062C1F6FF720B464FEA32
S315000051F043035B184FEA8303D3184FF06402DA7156
S31500005200F97940F6C062C1F6FF720B464FEA4303D6
S315000052105B184FEA8303D31803F108034FF000022B
S315000052201A60FB7903F10103FB71FB79632B9CD9AF
S3150000523007F10C07BD4680BC704700BF80B483B041
S3150000524000AF4FF00003FB714FF000033B6029E015
S3150000525040F6C062C1F6FF7239680B464FEA430357
S315000052605B184FEA8303D31803F108031B68002B6E
S3150000527014D040F6C062C1F6FF7239680B464FEA99
S3150000528043035B184FEA8303D31803F108031B6833
S315000052901B78002B02D04FF00103FB713B6803F132
S315000052A001033B603B68632B02DCFB79002BCFD00C
S315000052B0FB79184607F10C07BD4680BC704700BF56
S315000052C080B483B000AF4FF00003FB7137E0F9798B
S315000052D040F6C062C1F6FF720B464FEA43035B1805
S315000052E04FEA8303D31803F108031B68002B11D080
S315000052F0F97940F6C062C1F6FF720B464FEA4303E6
S315000053005B184FEA8303D31803F108031B681B7865
S31500005310002B19D0F97940F6C062C1F6FF720B4630
S315000053204FEA43035B184FEA8303D31803F10803DC
S315000053301B68002B07D0FB7903F10103FB71FB7996
S31500005340632BC4D900E000BFFB79184607F10C07B0
S31500005350BD4680BC704700BF80B485B000AF134621
S315000053600246FA800A467A713B714FF00003FB73DE
S315000053705FE0F97B40F6C062C1F6FF720B464FEA6A
S3150000538043035B184FEA8303D31803F108031B6832
S31500005390002B4AD0F97B40F6C062C1F6FF720B467D
S315000053A04FEA43035B184FEA8303D31803F108035C
S315000053B01B681B78002B38D0F97B40F6C062C1F61B
S315000053C0FF720B464FEA43035B184FEA8303D31879
S315000053D003F108031B68DB8AFA889A4225D1F97B18
S315000053E040F6C062C1F6FF720B464FEA43035B18F4
S315000053F04FEA8303D31803F108031B689B7E7A796F
S315000054009A4212D1F97B40F6C062C1F6FF720B4692
S315000054104FEA43035B184FEA8303D31803F10803EB
S315000054201B68DB7E3A799A4207D0FB7B03F10103C6
S31500005430FB73FB7B632B9CD900E000BFFB7B18460C
S3150000544007F11407BD4680BC704700BF80B584B025
S3150000545000AF03463960FB714FF00003FB73FB7925
S31500005460632B00F2E680F97940F6C062C1F6FF725E
S315000054700B464FEA43035B184FEA8303D31803F145
S3150000548008031B68002B00F0D480F97940F6C0624F
S31500005490C1F6FF720B464FEA43035B184FEA8303DC
S315000054A0D3181A683B681A60F97940F6C062C1F6EB
S315000054B0FF720B464FEA43035B184FEA8303D31888
S315000054C003F108031B68DA8A3B689A80F97940F68B
S315000054D0C062C1F6FF720B464FEA43035B184FEA00
S315000054E08303D3181A793B689A71F97940F6C0623A
S315000054F0C1F6FF720B464FEA43035B184FEA83037C
S31500005500D3185A793B68DA71F97940F6C062C1F668
S31500005510FF720B464FEA43035B184FEA8303D31827
S315000055209A793B681A72F97940F6C062C1F6FF7241
S315000055300B464FEA43035B184FEA8303D318DA7925
S315000055403B685A72F97940F6C062C1F6FF720B46A3
S315000055504FEA43035B184FEA8303D31803F10803AA
S315000055601B685A7E3B689A72F97940F6C062C1F6AA
S31500005570FF720B464FEA43035B184FEA8303D318C7
S3150000558003F108031B681A7E3B68DA72F97940F664
S31500005590C062C1F6FF720B464FEA43035B184FEA3F
S315000055A08303D31803F108031B689A7E3B681A73BA
S315000055B0F97940F6C062C1F6FF720B464FEA430323
S315000055C05B184FEA8303D31803F108031B68DA7EDE
S315000055D03B685A73F97940F6C062C1F6FF720B4612
S315000055E04FEA43035B184FEA8303D31803F108031A
S315000055F01B681A7F3B689A733B6803F10F00F979C1
S3150000560040F6C062C1F6FF720B464FEA43035B18D1
S315000056104FEA8303D31803F108031B684FF0150103
S315000056204EF62802C0F2040210F00CF84FF0010307
S31500005630FB73FB7B184607F11007BD4680BD00BF14
S3150000564080B58EB000AF03463960FB714FF00003A2
S3150000565087F83730FB79632B00F2DD81FB7918463A
S315000056604FF000010DF0AEFDB862BB6A002B00F0F2
S31500005670D281F9793B68186840F6C062C1F6FF72BC
S315000056800B464FEA43035B184FEA8303D3181860AF
S31500005690F9793B68987940F6C062C1F6FF720B460D
S315000056A04FEA43035B184FEA8303D31802461A7185
S315000056B0F9793B68D87940F6C062C1F6FF720B46AD
S315000056C04FEA43035B184FEA8303D31802465A7125
S315000056D0F9793B68187A40F6C062C1F6FF720B464C
S315000056E04FEA43035B184FEA8303D31802469A71C5
S315000056F0F9793B68587A40F6C062C1F6FF720B46EC
S315000057004FEA43035B184FEA8303D3180246DA7164
S31500005710F97940F6C062C1F6FF720B464FEA4303C1
S315000057205B184FEA8303D31803F10803BA6A1A60B9
S315000057304FF0000387F83630BB6A3B634FF0000337
S31500005740FB620FE03B6B1B78FF2B03D04FF001038E
S3150000575087F83630FB6A03F10103FB623B6B03F10A
S3150000576001033B63FB6A1D2B03D897F83630002BE9
S31500005770E8D097F83630002B57D13B68DB7B002BFF
S3150000578041D03B689B88FB833B68DB7A87F82030F7
S315000057903B689B7A87F821303B681B7B87F8223071
S315000057A03B685B7B87F823303B689B7B87F824301C
S315000057B03B6803F10F0307F1080210464FF015018D
S315000057C04EF62802C0F204020FF03CFFFA7907F108
S315000057D00803104619460DF053FD0346002B00F052
S315000057E01681F97940F6C062C1F6FF720B464FEAA0
S315000057F043035B184FEA8303D31803F108034FF002
S3150000580000021A6003E1F97940F6C062C1F6FF7240
S315000058100B464FEA43035B184FEA8303D31803F1A1
S3150000582008034FF000021A60F1E03B689A88BB6AF1
S31500005830DB8A9A422BD13B68DA7ABB6A1B7E9A4294
S3150000584025D13B689A7ABB6A5B7E9A421FD13B6838
S315000058501A7BBB6A9B7E9A4219D13B685A7BBB6A0C
S31500005860DB7E9A4213D13B689A7BBB6A1B7F9A42C6
S315000058700DD13B6803F10F02BB6A104619464FF083
S31500005880150232F02CFD0346002B00F0C08041F2D9
S315000058907030C1F6FF704FF064010DF09FFD3B685C
